:1000000009C00EC00DC00CC00BC00AC009C008C09A
:1000100007C006C011241FBECFE9CDBF35D089C0AF
:10002000EFCFDF93CF930F92CDB7DEB702C08981B8
:100030008150898389818823D1F70F90CF91DF91F7
:10004000089590E0837090708230910541F0833084
:10005000910539F08130910531F085E0089586E011
:1000600008958AE0089589E008950F931F93182F4B
:10007000E8DF082F812F86958695E3DF0295007FC4
:10008000802B1F910F9108958F929F92AF92BF92F4
:10009000CF92DF92EF92FF920F931F93DF93CF9354
:1000A000CDB7DEB7C950CDBF80E187BB8FE288BB3B
:1000B0008FEF89838B838C838D838E838F83888757
:1000C0008EE78A8380E090E036D0082FCEDF8B83E6
:1000D000802F82958F70C9DF8C836E010894C11CBC
:1000E000D11C39E0E32EF12CEC0EFD1E2FE2822E06
:1000F0009FE3992E86B38F70B8DF8D838601F80158
:10010000A1908F0188E0B82EA0FE02C096E101C048
:100110009EE288BA892F998784DF98BA9985892FBA
:1001200080DFBA9411F0A694EFCF0E151F0539F7B2
:10013000E1CFF89408C0E199FECF1FBA8EBBE09AD8
:0A01400099278DB30895F894FFCFBE
:00000001FF
